:020000040800F2
:1000000050040020490F0008590F00085B0F00083A
:100010005D0F00085F0F0008610F0008000000007E
:10002000000000000000000000000000630F000856
:10003000650F000800000000670F0008B50C0008FD
:100040009D0F0008A10F0008A50F0008A90F0008C8
:10005000AD0F0008B10F0008B50F0008B90F000878
:10006000BD0F0008C10F0008C50F0008C90F000828
:10007000CD0F0008D10F0008D50F0008D90F0008D8
:10008000DD0F0008E10F0008E50F0008E90F000888
:10009000ED0F0008F10F0008F50F0008F90F000838
:1000A000FD0F0008011000080510000809100008E5
:1000B0000D10000811100008151000081910000894
:1000C0001D10000821100008251000082910000844
:1000D0002D100008311000083510000839100008F4
:1000E0003D100008411000084510000849100008A4
:1000F0004D10000851100008551000085910000854
:100100005D10000861100008651000086910000803
:100110006D100008711000087510000879100008B3
:100120007D10000881100008851000088910000863
:100130008D10000891100008951000089910000813
:100140009D100008A1100008A5100008A9100008C3
:10015000AD100008B1100008B5100008B910000873
:10016000BD100008C1100008C5100008C910000823
:10017000CD100008D1100008D5100008D9100008D3
:10018000DD100008E11000082DE9F04383B00600FF
:100190000F00904699460A9D0B9CDFF8C0028642EC
:1001A0000FD1200080B20190280080B20090434619
:1001B0009BB24A46D2B23900C9B2DFF8A00200F0C1
:1001C00047F8DFF89C0286420FD1200080B20190F0
:1001D000280080B2009043469BB24A46D2B2390012
:1001E000C9B2DFF87C0200F033F8DFF8780286420B
:1001F0000FD1200080B20190280080B200904346C9
:100200009BB24A46D2B23900C9B2DFF8580200F0B8
:100210001FF8BDE8F78330B40488640616D5048956
:1002200014F0030FFBD004892406F8D400249C4268
:100230000CD20D5D8581058915F0030FFBD0058972
:100240002D06F8D485891555641CF0E730BC70473D
:100250002DE9F04385B007008846140099460C9DAF
:100260000D9E684600F02DF97C4887420CD17E48EF
:10027000006850F480507C4908604046C0B200F0ED
:1002800067F80020ADF80400754887420CD1774824
:10029000006850F48040754908604046C0B200F0E4
:1002A0007BF80020ADF804006E4887420CD16F48FF
:1002B000006850F400406D4908604046C0B200F04C
:1002C000A8F80020ADF80400ADF80C900020ADF8BF
:1002D0000000ADF80E60ADF802504FF40070ADF8BC
:1002E0000A00E4B2002C06D10020ADF80600002080
:1002F000ADF808001CE0E4B2012C06D10020ADF8F6
:1003000006000120ADF8080012E0E4B2022C06D18C
:100310000220ADF806000020ADF8080008E0E4B2C5
:10032000032C05D10220ADF806000120ADF808002D
:1003300039884FF6BF70014039806946380000F0B7
:10034000A1F8388850F04000388005B0BDE8F0834F
:100350001CB50400E4B2002C09D105200190032053
:10036000009000230022E021414800F0BDF8E4B2F3
:10037000012C09D1052001900320009000230022C8
:1003800038213C4800F0B0F8E4B2032C03D1052139
:10039000324800F075F813BD1CB50400E4B2002C1F
:1003A00014D10520019003200090002300224FF477
:1003B0008061304800F098F80520019003200090FB
:1003C000002300220C212C4800F08EF8E4B2012C0E
:1003D0000AD10520019003200090002300224FF451
:1003E0006041244800F080F8E4B2022C09D10520D5
:1003F000019003200090002300220D211F4800F0EF
:1004000073F8E4B2032C03D10521154800F038F845
:1004100013BD1CB50400E4B2002C09D106200190E4
:1004200003200090002300223821124800F05CF8DD
:10043000E4B2012C0AD10620019003200090002391
:1004400000224FF4E0510C4800F04EF8E4B2032CC7
:1004500003D10621034800F013F813BD003001401A
:1004600000380040003C0040443802404038024020
:100470000000024000040240000802400020024048
:100480007047000030B40023048814F441540D88F0
:100490004A8815438A881543CA8815430A89154333
:1004A0004A8915438A891543CA8915432C43048018
:1004B000858B4FF2FF72154085830A8A028230BC19
:1004C00070470021018000214180002181800021AE
:1004D000C180002101810021418100218181002111
:1004E000C1810721018270472DE9FC4707000C00FC
:1004F000904699460A9D0B9EA4B2002C38D0380035
:1005000000F03DF85FF0000ABAF1100F22D201218D
:1005100011FA0AF1200080B2084218D05046C008F3
:1005200007EB80015046C00807EB8000026A0F23EA
:100530001AF00700C0B2800083409A43F6B21AF066
:100540000700C0B2800016FA00F002430A621AF1F6
:10055000010AD9E72800C0B201904846C0B2009015
:100560004346DBB20222210089B2380000F015F8C0
:10057000BDE8F3873F490818800A80B2704710B57C
:1005800004002000FFF7F6FF3B490968012212FA38
:1005900000F008433849086010BD2DE9F843060013
:1005A0000F0090469946089C099D3000FFF7E2FF36
:1005B0000022D2B2102A59DA01239340390089B2BD
:1005C000194251D02A49C0B231F81010012393408A
:1005D0001943274BC0B223F81010F3685FF0030CE7
:1005E000D2B251001CFA01FC33EA0C03E4B2D2B2DD
:1005F000510014FA01F10B43F36033685FF0030C10
:10060000D2B251001CFA01FC33EA0C035FFA88F8FD
:10061000D2B2510018FA01F10B4333605FFA88F847
:10062000B8F1010F04D05FFA88F8B8F1020F1BD1BE
:1006300073680121914089B28B435FFA89F919FAF5
:1006400002F189B20B437360B3685FF0030CD2B25E
:1006500051001CFA01FC33EA0C03EDB2D2B2510096
:1006600015FA01F10B43B360521CA2E7BDE8F18318
:100670002C0000200000FEBF3038024010B440B211
:10068000002808D50A01984B40B210F00F0423440B
:1006900003F8042C03E00A01944B40B21A5410BC36
:1006A000704710B50400B4F1807F01D3012010E041
:1006B00024F07F40401E8E4908600F215FF0FF301C
:1006C000FFF7DCFF00208B49086007208A4908609B
:1006D000002010BD02001088400601D4002011E067
:1006E000108910F0030FFBD010890006F8D4C9B2AE
:1006F0009181108910F0030FFBD010890006F8D407
:100700009089C0B2704781B07C4909680091EFF3CD
:100710000581002906D179490A680099521A824256
:1007200008D2F8E7002805D073490968C903F9D54C
:10073000401EF7E701B070472DE9F04182B0040098
:100740000D0016006E480068401EA4B2A04201DAF7
:10075000012036E0EF1CBFB2380000F0DDF8804623
:100760000020BFB2B84219DA002803D1032108F8EB
:10077000001011E0012807D1A4B24FF4807194FB5E
:10078000F1F108F8001007E0022802D108F8004053
:1007900002E0002108F80010401CE2E7402159481F
:1007A00000F0A6F9BFB23B00320041465648FFF7C1
:1007B00032FD0220FFF7A7FF4021524800F096F9D2
:1007C0000020BDE8F6812DE9F84304000D00160075
:1007D0004B480068401EA4B2A04206DB48480068AF
:1007E000401E15FA84F1884201D2012046E000271C
:1007F000A4B2A04615FA84F080453ED2402141487B
:1008000000F076F906214048FFF764FF0120FFF76A
:100810007AFF40213B4800F069F90120FFF773FFA0
:10082000042000F079F88146022089F800004FF496
:10083000807098FBF0F089F8010089F80280A4B27A
:10084000B8EB0400305C89F8030040212D4800F02B
:100850004FF904233A0049462B48FFF7DCFC0220FD
:10086000FFF751FF4021274800F040F940F22620D1
:10087000FFF749FF18F10108BCE70020BDE8F2834B
:1008800000B583B0214800682149B0FBF1F0FFF7C3
:1008900008FF002800D0FEE70121082000F02AF917
:1008A00040201C49086001201A490871002019499C
:1008B000887101201749C8710320164948711549EC
:1008C000104800F0BFF840210E4800F00FF900205A
:1008D00001904FF4827000900023382200210A48D2
:1008E000FFF752FC07BD000018ED00E000E400E057
:1008F00014E000E018E000E010E000E00C00002050
:10090000740F0008000C0240003C00400000002072
:10091000A08601000400002010B50446AFF300805B
:10092000204600F005F80446AFF30080204610BDD5
:1009300070B500F10F04E408E400A04282B040D298
:10094000082C04D2082402E0083000F03CF8DFF85C
:10095000F0603568290005D1002007E00268A24256
:1009600021D2011D08680028F8D12868311D0A68C5
:10097000824222D01368A34238BF111DF7D312E080
:1009800013190B60001B55685D600B6818601460DC
:10099000096800291DBF48680028081D0020306034
:1009A00002F1080076BD61B10A681068A0F1080381
:1009B000A342E5D250680860EAE700F0ADF80028ED
:1009C000C2D1002076BD002800D1704750B4A0F1FC
:1009D00008021368072B2BD913F0070F28D1184CE6
:1009E000616809B18A4202D25160626013E04868CE
:1009F00000B3904238BF0146F9D31BE0964203D1C1
:100A00001B180B600A4606E0486810B11344984270
:100A10000ED350604A60506850B11368D1188142BB
:100A200006D1002121600168CB1813604068506036
:100A300050BC704708680E18B242DFD250BC7047F5
:100A400044000020F0B40022002300240025102DD3
:100A50004AD20122AA4013000A681A4014009C429C
:100A600040D1066803272A00D2B252009740BE4305
:100A7000066006680F792A00D2B2520097403E43C2
:100A800006600A79012A02D00A79022A1AD18668F8
:100A900003272A00D2B252009740BE438660866880
:100AA0004F792A00D2B2520097403E438660426896
:100AB0000126AE40B243426042688E79AE40B6B283
:100AC00032434260C66803272A00D2B252009740E0
:100AD000BE43C660C668CF792A00D2B252009740A2
:100AE0003E43C6606D1CB2E7F0BC7047018370479F
:100AF00041837047C9B2002905D0064A12680243F3
:100B0000044B1A6004E0034A12688243014B1A60E6
:100B100070470000303802400749086808B10020DB
:100B200070470648C008C00008600549C908C900E8
:100B3000091A0160704700BF4C00002057040020D4
:100B40005006002080B54E48006850F001004C4926
:100B5000086000204B490860494801684A48014044
:100B60004748016049484A4908604548006830F4F0
:100B700080204349086000204649086000F005F8DD
:100B80005FF000604449086001BD82B00020019020
:100B9000002000903A48006850F4803038490860DE
:100BA0003748006810F4003000900198401C019014
:100BB0000098002803D10198B0F5A06FF0D130481B
:100BC0000068800302D50120009001E00020009021
:100BD000009801283ED13148006850F080502F49DC
:100BE00008602F48006850F480402D49086025486F
:100BF0000068244908602348006850F400402149F7
:100C000008602048006850F4A0501E49086025483C
:100C10001F4908601A48006850F080701849086041
:100C2000174800688001FBD540F205601E49086046
:100C30001448006880088000124908601148006864
:100C400050F002000F4908600E48006810F00C00D8
:100C50000828F9D10B48006830F400000949086001
:100C60001248134908600648006850F08060044943
:100C70000860034800680001FBD502B0704700001F
:100C80000038024008380240FFFFF6FE1030002412
:100C9000043802400C38024008ED00E040380240C1
:100CA0000070004008544007003C024000300050F3
:100CB0008438024010B537480068401C3549086048
:100CC00035480068002804D033480068401E324987
:100CD0000860AFF300800024200030490978C0B2DA
:100CE000884255D22D48E4B200EB840040680028C9
:100CF0004CD02A48E4B200EB84004068007B002816
:100D000044D02648E4B200EB8400406880680028A4
:100D10003CD02248E4B200EB840040681F49E4B2B2
:100D200001EB840149688968491E81601B48E4B26F
:100D300000EB840040688068002827D11748E4B29F
:100D400000EB8400406840691449E4B201EB84017F
:100D50004968096988471148E4B200EB840040689B
:100D60000E49E4B201EB84014968096881600B48CF
:100D7000E4B200EB840040684068002806D10748D0
:100D8000E4B200EB8400406800210173641CA3E717
:100D900010BD00000C0000201000002014000020F6
:100DA000103A07D330B4B1E83810103AA0E8381040
:100DB000F9D230BC530724BFB1E80810A0E80810EE
:100DC00044BF51F8043B40F8043BD20724BF31F83C
:100DD000022B20F8022B44BF0B7803707047121FC0
:100DE00017D35B0009D151F8043B20F8023B1B0CE0
:100DF000121F20F8023BF6D20BE051F8043B00F83A
:100E0000013B1B0A20F8023B1B0C121F00F8013BA0
:100E1000F3D238BF121D521E24BF11F8013B00F857
:100E2000013BF8D87047000000B5ADB0FFF728FDD2
:100E300068460A491022FFF7B3FF6A460A213C20A0
:100E4000FFF7C1FC04AA0A213C20FFF775FC04AAA5
:100E500001210320FFF770FCFEE70000380F0008B7
:100E600030B5016884684218416802EB5103C90734
:100E70000BD54C4409E012F9011B12F8015B002963
:100E800004F8015B05D5491CF9D19A42F3D10C3025
:100E900030BD491EF1D5F8E710B50749794418313E
:100EA000064C7C44163404E00A68081D1144884747
:100EB0000146A142F8D110BD2C000000380000000E
:100EC0004EF68851CEF20001086840F470000860C8
:100ED000BFF34F8FBFF36F8F4FF00070E1EE100A3A
:100EE000704700007DFFFFFFFC0100000E000000C6
:100EF0000000002000F00BF8002801D0FFF7CCFF25
:100F00000020AFF30080FFF78FFF00F002F8012010
:100F1000704700F001B800000746384600F002F8BC
:100F2000FBE7000080B5AFF30080024A11001820F3
:100F3000ABBEFBE72600020050616C636363636332
:100F4000636363636363630001488047014800474C
:100F5000450B0008690F00087047FEE7FEE7FEE753
:100F6000FEE7704770477047AFF30080FFF7A8FFB8
:100F7000FFF7C0FF00400000FFF7EEBFFFF7EDBF37
:100F8000FFF7ECBFFFF7EBBFFFF7EABFFFF7E9BFE3
:100F9000FFF7E8BFFFF7E7BFFFF78CBEFFF7FEBF25
:100FA000FFF7FEBFFFF7FEBFFFF7FEBFFFF7FEBF75
:100FB000FFF7FEBFFFF7FEBFFFF7FEBFFFF7FEBF65
:100FC000FFF7FEBFFFF7FEBFFFF7FEBFFFF7FEBF55
:100FD000FFF7FEBFFFF7FEBFFFF7FEBFFFF7FEBF45
:100FE000FFF7FEBFFFF7FEBFFFF7FEBFFFF7FEBF35
:100FF000FFF7FEBFFFF7FEBFFFF7FEBFFFF7FEBF25
:10100000FFF7FEBFFFF7FEBFFFF7FEBFFFF7FEBF14
:10101000FFF7FEBFFFF7FEBFFFF7FEBFFFF7FEBF04
:10102000FFF7FEBFFFF7FEBFFFF7FEBFFFF7FEBFF4
:10103000FFF7FEBFFFF7FEBFFFF7FEBFFFF7FEBFE4
:10104000FFF7FEBFFFF7FEBFFFF7FEBFFFF7FEBFD4
:10105000FFF7FEBFFFF7FEBFFFF7FEBFFFF7FEBFC4
:10106000FFF7FEBFFFF7FEBFFFF7FEBFFFF7FEBFB4
:10107000FFF7FEBFFFF7FEBFFFF7FEBFFFF7FEBFA4
:10108000FFF7FEBFFFF7FEBFFFF7FEBFFFF7FEBF94
:10109000FFF7FEBFFFF7FEBFFFF7FEBFFFF7FEBF84
:1010A000FFF7FEBFFFF7FEBFFFF7FEBFFFF7FEBF74
:1010B000FFF7FEBFFFF7FEBFFFF7FEBFFFF7FEBF64
:1010C000FFF7FEBFFFF7FEBFFFF7FEBFFFF7FEBF54
:1010D000FFF7FEBFFFF7FEBFFFF7FEBFFFF7FEBF44
:0B10E000FFF7FEBF03007A030AB40014
:0400000508000F6977
:00000001FF
